:020000040000FA
:10000000A304020A6400A304640BA304290AA30541
:0A001000D40BA304850AA304F30A2D
:10005200A404C40430005C0A1F0C2700200C2600F4
:10006200840A030C27006600840A2D0C2700200C4A
:100072002600840A270C2700200C2600840A330C51
:100082002700340A360C2700200C2600840A3E0C76
:100092002700200C2600840A030C2700200C2600CF
:1000A200840A3F0C2700200C2600840A370C270004
:1000B200200C2600840A10022D006E000E02000F92
:1000C2004306640A2D0A0D02000F43062D0A010F92
:1000D2004306320A030F4306360A010F43063B0A60
:1000E200070F4306400A010F4306430A030F430664
:1000F200480A010F43064D0A0F0F4306520A010F29
:100102004306570A2D0A0008A404C4047F00A4056C
:10011200F3078C0A8D0A950A72027302B202430631
:10012200B302A4047F00BF02A405F107990A9A0A48
:100132009F0A70027102B0024306B102100211015D
:100142004306A40AA50AE10AA4047E00BE02B50A77
:10015200010C2D00030470037103ED02AB0A010CC4
:100162002F000F02A404FE01A405F107B90ABA0A7E
:10017200A90AA40511022E0010022D000E029300FE
:100182004307C50A0D0292000307C80AC90AD30A27
:1001920011022E0010022D000D02B2000E02030702
:1001A200F300B300010C2D00030431033003ED0210
:1001B200D50A010CA404BE004307E00AE10ABA0A08
:1001C200A4041F024306E60AE70AED0AA405720226
:1001D2007302B2024306B302A405130231001202F3
:1001E20030000008A404C4047B00F707F90AFA0AE5
:1001F200010B76027702B6024306B7027B00BB020E
:10020200F907040B050B0E0B78027902B8024306BC
:10021200B902010C2F000F02BB017C007D00160207
:1002220017014306150B160B550B7A00BA02240B65
:10023200010C2D00030476037703ED021B0B010C66
:100242002F000F02FA01F707270B280B190B010CDD
:100252002D0003047C037D03ED022A0B17022E00FE
:1002620016022D000E0299004307390B0D02980069
:1002720003073C0B3D0B480B17022E0016022D0004
:100282000D02B8000E020307F900B9001C05010CAB
:100292002D00030437033603ED024A0B010CBA00AA
:1002A2004307540B550B280B1B024306590B5A0BE1
:1002B2005F0B7C027D02BC024306BD021D023700B9
:1002C2001C0236000008400CA404C4042800400CA0
:1002D2002B00DF0C0200DF0C06006600000C07009A
:1002E2006700790C2900A404C404290529067A0BA5
:1002F2007B0B770B330C3600000C37000A022D0003
:100302006E000D0230000E023100640C3200000C4F
:100312003300A3040709A304A404C404110239008E
:1003220010023800A3040B09A304A404C404170296
:10033200A4053600A4041602A4053500640CA40426
:100342003600000C3700A4051602A4043900A405E7
:100352001502A4043800A3040B09A304640CA40529
:10036200C4043000000C3100330CA4043600000C2D
:1003720037000A022D006E000D0230000E0231001D
:10038200640C3200000C3300A3040709A304A40484
:10039200C4041102390010023800A3040B09A3049B
:1003A200A404C4041702A4053300A4041602A4057D
:1003B2003200A3040909A304A405C40410022D00F9
:1003C20011022E000D0237000A0C3000000C310021
:1003D20017022D006E000D0232000E023300A3043C
:1003E2000909A304A405C40410022D0011022E0061
:0E03F2000D02A3040509A304740BA304000A62
:1007A800A404C404740075001007DB0BDC0BE60B13
:1007B80013022E0012022D000D02F4010306B502E9
:1007C8000E02F501010C2D00030472037303ED0200
:1007D800E80B010C2D00030431033003ED02EF0B8D
:1007E800100211014307F90BFA0BD80B150231005F
:0607F800140230000008AD
:021FFE0094004D
:00000001FF
